:100AAE00C10D010800010B00010AFF011B00011C12
:100ABE0000011D00010900011E000F0C00000000C6
:0B0ACE0000000000000000000000001D
:100D7800121038D28CD2CAE50814602014602214EC
:100D88006032240370F11210B7300A07C20A7508DE
:100D98000280E4E56460E075080180DB12095F8089
:100DA800D6121003120CA1300DCD120BB4C20D7562
:090DB800080380C31204E880BEA8
:1010380012113F120FBB1210501210EA1210CA12EE
:08104800112B12110802107BAC
:07113F0075FFDE75FFAD2214
:100FBB0075B167E4FFFE0FBF00010EE4B507F7EE56
:100FCB00B401F3E5B130E7FB75B288E5B130E7FB6F
:030FDB0075B208E4
:010FDE0022F0
:1010500075A4FF75A56375A6F075A0FF75B5FB7542
:06106000E10475E34422E7
:0F10EA00759850438780758DFA758BFAD28E22D8
:1010CA00E4F5BA75BC2775BB0175D10275E8C02273
:0A112B00758921758C9C758AFF22DE
:0C11080075E702D2ACC28DD2A9D2AF2292
:10107B00E4F584F585120ED07F0112108F7D017F70
:04108B0001020F3F10
:060AD900016CFF016D003D
:100F0C00120D0DBFFF05756CFF8024E56D70068F0B
:100F1C006C756D0122E56DB41907756D1A856C0A37
:100F2C0022E56DD39419500AEFB56C03056D22E4DC
:020F3C00F56D51
:010F3E002290
:100D0D00C290D291D296D2952094037F0122209346
:100D1D00037F02222092037F0322D290C291D296AA
:100D2D00D2952094037F04222093037F05222092E5
:100D3D00037F0622D290D291C296D2952094037F42
:100D4D0007222093037F08222092037F0922D2904D
:100D5D00D291D296C2952094037F0A222093037FCD
:0B0D6D0000222092037F0B227FFF2258
:05114600AF0A750AFF6D
:01114B002281
:0F10F90020030B120F0CD2037547007548192204
:100ADF0014470000000000000000000000000000AC
:100AEF00000000000000C103C100C101C102C10428
:020AFF00C1052F
:10063A00E5484547600AE5481548700615478002AF
:10064A00C203E54A4549600AE54A154A7006154952
:10065A008002C200E54C454B600AE54C154C700619
:10066A00154B8002C201E54E454D600AE54E154E16
:10067A007006154D8002C202E550454F6020E552D2
:10068A004551600AE552155270161551801275517E
:10069A00C3755250E55015507006154F8002C204BA
:1006AA00E55445536020E5564555600AE55615560A
:1006BA007016155580127555C3755650E554155464
:1006CA00700615538002C205E5584557601EE55A63
:1006DA0045596009E55A155A70201559227559C3AA
:1006EA00755A50E5581558701115572275570075E7
:0B06FA0058017559C3755A50050B22BA
:030B0100011F0AC7
:03000B00020E0AD8
:100E0A00C0E0C0F0C083C082C0D075D000C000C0AE
:100E1A0001C002C003C004C005C006C00712063ADA
:100E2A00E58A249CF58A758CFFD007D006D005D0B8
:100E3A0004D003D002D001D000D0D0D082D083D049
:040E4A00F0D0E032D2
:03002B000210DAE6
:1010DA00C0E0C2AFC2CFE4F5CDF5CCD2AFD0E0329A
:100ED0007F3812108F12101F7F3812108F12101FC0
:100EE0007F3812108F12101F7F0C12108F12101FDC
:100EF0007F0112108F12101F7F0612108F53847FF4
:0C0F00005396BF4384405384BF02102B63
:0C101F0053847F5396BF4384405384BF2A
:0C102B00E4FFE4FE0EBEFFFC0FBF32F637
:011037002296
:10108F00AD0712102B8D8653847F5396BF43844038
:04109F005384BF2295
:100F93008B618A62896312102BAB61AA62A9631207
:100FA300044D60130563E5637002056214F91204CE
:080FB3004DFF1210A380E222A1
:1010A300AD0712102B8D864384805396BF43844033
:0410B3005384BF2281
:100F3F00EFC394014006EFD394024010EDC3940128
:100F4F004006EDD3941040047F017D01EDBF0104F5
:0B0F5F00247F800224BFFF12108F22AD
:03002300020DC10A
:100DC100C0E0C0F0C0D075D000C0003098147429C4
:100DD1002525F8A6990525E52575F00F8485F025CB
:100DE100C29830991BC299E527652860137438258C
:100DF10028F8E6F5990528E52875F00F8485F0288F
:090E0100D000D0D0D0F0D0E032D6
:070B0400C10AC109016E0BDB
:100BB400C206200673E56E24F6601D24FE602C1424
:100BC4006046240270EC20ECE975BB0143BC07D2FB
:100BD400ECC209756E0A80DA200905121135D209B2
:100BE40020ECCF438580756E0C80C775BB0253BC67
:100BF400F8438540756E0DAFBEAEBF7C007D0A1212
:100C040004938F09D2EC80AA20ECA775BB0143BCE6
:100C140007AFBEAEBF7C007D0D1204938F1B756EB3
:080C24000B438520D206808AF3
:010C2C0022A5
:101003001210F9121146EFF46005D20AE4F508E56F
:0C1013000BC395664005E4F50BD20D22DE
:03007B0002114C23
:03114C00C2ED32BF
:1007050020436F6E66696775726163696F6E3A0043
:10071500312D53657465617220322D53616C697298
:1007250000436F6E66696775726163696F6E204F0E
:100735004B00436F6E66696775726163696F6E0022
:10074500706F72206465666563746F00616E7465B1
:1007550072696F720053696E20436F6E66696775C3
:1007650072612D002D63696F6E006D696E20706F6B
:1007750072206D7565737472610028312D393929C0
:100785003A202D2D00312DB0435B205D20322D52B6
:1007950048255B205D00332D6850615B205D203668
:1007A5002D203E3E202000312D20203C3C202020C5
:1007B500322D4F4B21202000332D53616C6972205F
:0B07C5002020202020202020003031C8
:0C0B0B0001670101660101640001653012
:1010B700300A02800A1210F9121146EFF460031287
:0310C70001002203
:10010000C2067F0112108F7BFF7A077905120F93C9
:100110007D017F02120F3F7BFF7A077915120F9343
:10012000D202754DC3754E502002030203301210E7
:10013000F9121146EF24FE70030202BF0470E9D2E7
:1001400002754DC3754E507F0112108F7BFF7A07E9
:10015000798A120F937D017F02120F3F7BFF7A078E
:10016000799B120F93E56530E00C7D067F01120F3D
:100170003F7F581210A3E56530E10C7D0F7F01121F
:100180000F3F7F581210A3E56530E20C7D077F0218
:10019000120F3F7F581210A330028D1210F9121166
:1001A00046EF24FE600F14601024FD6013240570D8
:1001B000E77F0180067F0280027F04120C2D80D829
:1001C000C2067F0112108F7BFF7A0779AC120F9362
:1001D0007D017F02120F3F7BFF7A0779BD120F93DB
:1001E000D202754DC3754E503002AD2006AA1210D2
:1001F000F9121146EF24FE60671470030202862490
:100200000270E5D206D202754DC3754E507F0112C1
:10021000108F7BFF7A07798A120F937D017F02127C
:100220000F3F7BFF7A07799B120F93E56530E00C57
:100230007D067F01120F3F7F581210A3E56530E164
:100240000C7D0F7F01120F3F7F581210A3E5653020
:10025000E2967D077F02120F3F7F581210A380881D
:10026000C20A1207D08565644364607F0112108F53
:100270007BFF7A077926120F93D201754B27754CB5
:10028000102001FD8031C20A8565644364607F01EE
:1002900012108F7BFF7A077937120F937D017F024F
:1002A000120F3F7BFF7A077945120F93D201754BEE
:1002B00027754C102001FDC2027508010201E830CB
:1002C0000A0B7508027F0112108F020128E5646095
:1002D0002E7F0112108F7BFF7A077937120F937DE3
:1002E000017F02120F3F7BFF7A077951120F93D2E1
:1002F00001754B27754C102001FDC2020201287FB9
:100300000112108F7BFF7A07795A120F937D017FBC
:1003100002120F3F7BFF7A077969120F93E4F565AC
:10032000D201754B27754C102001FDC20202012835
:050330007F0102108FA7
:100C2D00EF24FE602824FE60442403705E7D067F61
:100C3D0001120F3FE56530E00A7F201210A35365C6
:100C4D00FE80487F581210A3436501803E7D0F7FC3
:100C5D0001120F3FE56530E10A7F201210A35365A5
:100C6D00FD80287F581210A3436502801E7D077FEB
:100C7D0002120F3FE56530E20A7F201210A3536583
:100C8D00FB80087F581210A3436504D202754DC333
:040C9D00754E50221E
:1007D000785B7C007D007BFF7A0779CE7E007F020C
:1007E000120405E4F55DF55EF55FF560C2073007BC
:1007F000030208997F0112108F7BFF7A07796F122D
:100800000F937D017F02120F3F7BFF7A07797F12E2
:100810000F937D097F02120F3F802C300233E55D7C
:10082000D39401502C1210F91211468F5EE55EF43C
:1008300060E9745B255DF8A65E745B255DF8E624CF
:1008400030FF1210A3055DD202754DC3754E508066
:10085000CA855B5F855C60E55DD394014030E55FF0
:100860007007E5607003755F0FE55FC3940A501869
:10087000E55FC394004011E560940A500BE55F7595
:10088000F00AA42560F56622E4F55D0207EE7567BF
:0908900001756601D2070207EEB2
:01089900223C
:0B111400E5A0C413135403FF120E915A
:01111F0022AD
:030B1700016F0665
:10095F00E4FFFEE56F24F9604B14605A2402600334
:10096F00020A21750C231211148F0D750E43856623
:10097F000F856710856511AF11120E918F11E50D5F
:10098F00250E250F25102511F512FF120E918F122E
:10099F00751324E4F514F516FB7A00790C120E4E3C
:1009AF00756F0722E52765287068D201754B27758B
:1009BF004C10756F0822200107E4F516756F06229B
:1009CF001211205012121066740C2516F8A607E5A6
:1009DF000C6423703D0516E51664057035F517E5B3
:1009EF000CB423020517E50DB441020517E50EB44B
:1009FF0043020517E50FB44B020517E510B42402A7
:100A0F000517E517B405057508028000756F06E434
:020A1F00F516CA
:010A210022B2
:0E0B1A0002680000016B07016A00C10BC10CEC
:0A11350012089A850C1D850E1C227D
:10089A00755B5AD207D208756B07E4F56AC20BC2B8
:1008AA000CF50CF50DF50EF50FF510F568F569F573
:1008BA001E20080302095EE55B24A5601414603754
:1008CA0014605F146067240470E7755B5BD207806D
:1008DA00E0300709C2A0E4F5CDF5CCC207D3E5CCD8
:1008EA009450E5CD944640C9D2A053A6FEE4F5CD76
:1008FA00F5CC755B5C80BAD200754900754A323016
:10090A00A0032000FA20A0032000FA30A003200050
:10091A00FAE4F5CDF5CC755B5DD200F549754A323E
:10092A00808F120B32200089755B5E8084755B5A5A
:10093A00E50F250EFFE433FE7C00EF250DFFEC3EAC
:10094A00FEEF250CFFEC3EFEE510B50706ECB506FA
:04095A0002C322D3DF
:01095E002276
:100B3200A2A0920CA20C300B01B35075300C08200D
:100B42000B05A20C920B22200C67300B6485CD683A
:100B520085CC69E4F5CDF5CCA20C920BC3E5699482
:100B620087E5689400504AC3E569945AE5689400A1
:100B72005017740C251EF8C000E6FFAE6BE4A80601
:100B8200088002C333D8FC8016740C251EF8C000FE
:100B9200E6FFAE6B7401A806088002C333D8FC4F8F
:100BA200D000F6056AE56B7006051E756B07221507
:020BB2006B22B4
:090B280001220E01230001241139
:1004E800E4F55BF55CE52224F1700302057E1470E7
:1004F8000302060C24026003020639750C2312114C
:10050800148F0D750E01AF0E120E918E5B8F5C85E8
:100518005C0E851B0FAF0F120E918E5B8F5CE55C36
:10052800455B7005F55B755CFE855C0F751008AF63
:1005380010120E918E5B8F5C855C10851C11AF11BB
:10054800120E918E5B8F5CE55C455B7005F55B7503
:100558005CFE855C11E50D250E250F25102511F58E
:1005680012FF120E918E5B8F5CE55C455B7005F5A2
:100578005B755CFE8079750C231211148F0D750E56
:1005880004AF0E120E918E5B8F5C855C0E85090F91
:10059800AF0F120E918E5B8F5CE55C455B7005F5C5
:1005A8005B755CFE855C0F751002AF10120E918EA4
:1005B8005B8F5C855C10851D11AF11120E918E5BEF
:1005C8008F5CE55C455B7005F55B755CFE855C11D1
:1005D800E50D250E250F25102511F512FF120E9198
:1005E8008E5B8F5CE55C455B7005F55B755CFE8535
:1005F8005C12751324E4F514FB7A00790C120E4E84
:1006080075221022E527652870270523E523B40203
:1006180006E4F523750802E523700375220EE52329
:10062800B4010375220FD201754B27754C102001B8
:01063800FDC4
:01063900229E
:1010660074292526F8E6FF7E000526E52675F00F8D
:041076008485F02657
:01107A002253
:0B112000E52565266003D38001C32293
:100CA10012112050661210668F0CE52424EE601498
:100CB10014603C24027054E50C6423704E752412B8
:100CC100751A0822740C251AF8A60C051AE51AD310
:100CD100940D4037E5142515251625172518F50C13
:100CE100B51906752413020FDF752411020F6A125C
:100CF10011147C00EFB51413ECB5060F851666854B
:0B0D010017678518658565647524116F
:010D0C0022C4
:060E4E008B5D8A5E895FE6
:100E5400E527B52803D38001C39206E4FFFEAB5D0A
:100E6400AA5EA95F8F828E83120466FD60197438AE
:100E74002527F8A6050527E52775F00F8485F027B3
:0C0E84000FBF00010E80D7300602D2998B
:010E9000223F
:100FDF00750C23750D41750E43750F4BE50C250DE3
:100FEF00250E250FF510751124E4F512FB7A007903
:040FFF000C020E4E84
:100F6A00750C23750D4E750E41750F4375104BE5C3
:100F7A000C250D250E250F2510F511751224E4F503
:090F8A0013FB7A00790C020E4EF3
:100E9100E4FDFCEF75F00A12042B85F05DEF75F0AF
:100EA1000A12042BFF75F00A12042BAEF0EE75F056
:100EB1000AA4F55EEF75F00A12042B75F064A4F52F
:0E0EC1005FE55D255E255FF560FF3395E0FE81
:010ECF002200
:03000000020A22CF
:0C0A2200787FE4F6D8FD75816F020A6948
:10033500E709F608DFFA8046E709F208DFFA803EAA
:1003450088828C83E709F0A3DFFA8032E309F60897
:10035500DFFA8078E309F208DFFA807088828C83FF
:10036500E309F0A3DFFA806489828A83E0A3F608B3
:10037500DFFA805889828A83E0A3F208DFFA804C8D
:1003850080D280FA80C680D4806980F28033801064
:1003950080A680EA809A80A880DA80E280CA8033CD
:1003A50089828A83ECFAE493A3C8C582C8CCC58345
:1003B500CCF0A3C8C582C8CCC583CCDFE9DEE78015
:1003C5000D89828A83E493A3F608DFF9ECFAA9F094
:1003D500EDFB2289828A83ECFAE0A3C8C582C8CCEA
:1003E500C583CCF0A3C8C582C8CCC583CCDFEADE03
:1003F500E880DB89828A83E493A3F208DFF980CC65
:1004050088F0EF60010E4E60C388F0ED2402B4045D
:100415000050B9F582EB2402B4040050AF23234504
:06042500822390038573A1
:10042B00C2D530F707B2D563F0FF05F030E70CB259
:10043B00D5F4048463F0FF05F080018430D502F419
:02044B00042289
:10044D00BB010689828A83E0225002E722BBFE02AD
:09045D00E32289828A83E49322E0
:10046600BB010CE58229F582E5833AF583E022504B
:1004760006E92582F8E622BBFE06E92582F8E22295
:0D048600E58229F582E5833AF583E49322AF
:10049300BC000BBE0029EF8DF084FFADF022E4CC4D
:1004A300F875F008EF2FFFEE33FEEC33FCEE9DEC16
:1004B300984005FCEE9DFE0FD5F0E9E4CEFD22ED5C
:1004C300F8F5F0EE8420D21CFEADF075F008EF2FA6
:1004D300FFED33FD4007985006D5F0F222C398FD97
:0504E3000FD5F0EA2234
:100A2E00020D78E493A3F8E493A34003F68001F259
:100A3E0008DFF48029E493A3F85407240CC8C333C9
:100A4E00C4540F4420C8834004F456800146F6DF98
:100A5E00E4800B0102040810204080900AAEE47E70
:100A6E00019360BCA3FF543F30E509541FFEE4938D
:100A7E00A360010ECF54C025E060A840B8E493A354
:100A8E00FAE493A3F8E493A3C8C582C8CAC583CA7F
:100A9E00F0A3C8C582C8CAC583CADFE9DEE780BE37
:010B310000C3
:00000001FF
